:03000000020030CB
:1000300075320075340075380075360031B78000B0
:10004000C2A4C2A5C2A6C2A730A00B30A10830A28C
:100050000530A30280EA5126116E11E03133E53AF2
:100060002430C0E031DDD0E03152513480D2C2A41E
:10007000D2A5D2A6D2A711BCE53C600514F53A8002
:100080003AC2A5D2A4D2A6D2A711BCE53C600624F0
:1000900003F53A8026C2A6D2A4D2A5D2A711BCE508
:1000A0003C60062407F53A8012C2A7D2A4D2A5D29A
:1000B000A611BCE53C6004240BF53A2220A005758E
:1000C0003C01801B20A105753C02801320A2057510
:1000D0003C03800B20A305753C048003753C002283
:1000E000AB3ABB0005753A078048BB0105753A0875
:1000F0008040BB0205753A098038BB0305753AFF9D
:100100008030BB0703753AFABB0803753A01BB0997
:1001100003753A02BB0A03753A03BB0B03753AFD3C
:10012000BB0D03753A00BB0E03753A0DBB0F03758B
:100130003AFB22AC36BC0007853A3205368012BC49
:100140000107853A3805368008BC0205853A340532
:100150003622B43D50E538B4FB10E5322534FD2499
:10016000F64043ED243031DD803BB4FD10E532959F
:1001700034FD24F64030ED243031DD8028B4FA120D
:05018000E5328534F0BA
:10018500A4FD24F6401BED243031DD8013B4FF10AF
:10019500E5328534F084FD24F64006ED243031DD6A
:1001A50022ED75F00A84243031DDE5F0243031DDAF
:1001B50080EE7400510E7403510E7402510E7428B2
:1001C50031D4740C31D4740631D4740131D422C2C3
:1001D50090C29131E6512F22D290C29131E6512F32
:1001E50022F854F0F9E5B0540F49F5B0D2925126F2
:1001F500C2925126E8C454F0F9E5B0540F49F5B060
:10020500D2925126C292512622C290C291C454F074
:10021500F9E5B0540F49F5B0D2925126C292512654
:10022500227AC879FFD9FEDAFA227F0ADFFE227523
:1002350089107F0A758D3C758BB0D28E308FFDC2CB
:060245008EC28FDFEF22E4
:00000001FF
